{
    "contractName": "Staking",
    "abi": [
        {
            "inputs": [
                {
                    "internalType": "contract IERC20",
                    "name": "_stakedToken",
                    "type": "address"
                },
                {
                    "internalType": "uint256",
                    "name": "_rewardPerBlock",
                    "type": "uint256"
                }
            ],
            "stateMutability": "nonpayable",
            "type": "constructor"
        },
        {
            "anonymous": false,
            "inputs": [
                {
                    "indexed": true,
                    "internalType": "address",
                    "name": "user",
                    "type": "address"
                },
                {
                    "indexed": false,
                    "internalType": "uint256",
                    "name": "amount",
                    "type": "uint256"
                }
            ],
            "name": "Claim",
            "type": "event"
        },
        {
            "anonymous": false,
            "inputs": [
                {
                    "indexed": true,
                    "internalType": "address",
                    "name": "user",
                    "type": "address"
                },
                {
                    "indexed": false,
                    "internalType": "uint256",
                    "name": "amount",
                    "type": "uint256"
                }
            ],
            "name": "Stake",
            "type": "event"
        },
        {
            "anonymous": false,
            "inputs": [
                {
                    "indexed": true,
                    "internalType": "address",
                    "name": "user",
                    "type": "address"
                },
                {
                    "indexed": false,
                    "internalType": "uint256",
                    "name": "amount",
                    "type": "uint256"
                }
            ],
            "name": "unStaked",
            "type": "event"
        },
        {
            "inputs": [],
            "name": "accRewardPerShare",
            "outputs": [
                {
                    "internalType": "uint256",
                    "name": "",
                    "type": "uint256"
                }
            ],
            "stateMutability": "view",
            "type": "function"
        },
        {
            "inputs": [],
            "name": "claim",
            "outputs": [],
            "stateMutability": "nonpayable",
            "type": "function"
        },
        {
            "inputs": [],
            "name": "distributeReward",
            "outputs": [],
            "stateMutability": "nonpayable",
            "type": "function"
        },
        {
            "inputs": [
                {
                    "internalType": "uint256",
                    "name": "_from",
                    "type": "uint256"
                },
                {
                    "internalType": "uint256",
                    "name": "_to",
                    "type": "uint256"
                }
            ],
            "name": "getReward",
            "outputs": [
                {
                    "internalType": "uint256",
                    "name": "",
                    "type": "uint256"
                }
            ],
            "stateMutability": "view",
            "type": "function"
        },
        {
            "inputs": [],
            "name": "lastRewardBlock",
            "outputs": [
                {
                    "internalType": "uint256",
                    "name": "",
                    "type": "uint256"
                }
            ],
            "stateMutability": "view",
            "type": "function"
        },
        {
            "inputs": [],
            "name": "pendingReword",
            "outputs": [
                {
                    "internalType": "uint256",
                    "name": "",
                    "type": "uint256"
                }
            ],
            "stateMutability": "view",
            "type": "function"
        },
        {
            "inputs": [],
            "name": "rewardPerBlock",
            "outputs": [
                {
                    "internalType": "uint256",
                    "name": "",
                    "type": "uint256"
                }
            ],
            "stateMutability": "view",
            "type": "function"
        },
        {
            "inputs": [
                {
                    "internalType": "uint256",
                    "name": "_amount",
                    "type": "uint256"
                }
            ],
            "name": "stake",
            "outputs": [],
            "stateMutability": "nonpayable",
            "type": "function"
        },
        {
            "inputs": [],
            "name": "stakedToken",
            "outputs": [
                {
                    "internalType": "contract IERC20",
                    "name": "",
                    "type": "address"
                }
            ],
            "stateMutability": "view",
            "type": "function"
        },
        {
            "inputs": [],
            "name": "totalStaked",
            "outputs": [
                {
                    "internalType": "uint256",
                    "name": "",
                    "type": "uint256"
                }
            ],
            "stateMutability": "view",
            "type": "function"
        },
        {
            "inputs": [
                {
                    "internalType": "uint256",
                    "name": "_amount",
                    "type": "uint256"
                }
            ],
            "name": "unStake",
            "outputs": [],
            "stateMutability": "nonpayable",
            "type": "function"
        },
        {
            "inputs": [
                {
                    "internalType": "address",
                    "name": "",
                    "type": "address"
                }
            ],
            "name": "userInfo",
            "outputs": [
                {
                    "internalType": "uint256",
                    "name": "amount",
                    "type": "uint256"
                },
                {
                    "internalType": "uint256",
                    "name": "rewardDebt",
                    "type": "uint256"
                }
            ],
            "stateMutability": "view",
            "type": "function"
        }
    ],
    "bytecode": "608060405234801561001057600080fd5b506040516109ca3803806109ca83398101604081905261002f91610058565b600580546001600160a01b0319166001600160a01b039390931692909217909155600155610092565b6000806040838503121561006b57600080fd5b82516001600160a01b038116811461008257600080fd5b6020939093015192949293505050565b610929806100a16000396000f3fe608060405234801561001057600080fd5b50600436106100b45760003560e01c8063939d623711610071578063939d62371461013f578063a694fc3a14610148578063a9f8d1811461015b578063b90bc51914610164578063cc7a262e14610177578063f2e6d0c9146101a257600080fd5b80631959a002146100b95780634e71d92d146100fa5780635d3eea9114610104578063817b1cd2146101175780638ae39cac1461012e5780638f73c5ae14610137575b600080fd5b6100e06100c73660046107ce565b6004602052600090815260409020805460019091015482565b604080519283526020830191909152015b60405180910390f35b6101026101aa565b005b610102610112366004610819565b6101f0565b61012060035481565b6040519081526020016100f1565b61012060015481565b61010261027c565b61012060005481565b610102610156366004610819565b6102d3565b61012060025481565b61012061017236600461084b565b610372565b60055461018a906001600160a01b031681565b6040516001600160a01b0390911681526020016100f1565b610120610392565b3360009081526004602052604090206101c161027c565b6101c96103e9565b600054815464e8d4a51000916101de916108a7565b6101e89190610885565b600190910155565b3360009081526004602090815260409182902082518084019093528054808452600190910154918301919091528211156102675760405162461bcd60e51b815260206004820152601360248201527229ba30b5b4b7339d1d3130b21030b1ba34b7b760691b60448201526064015b60405180910390fd5b61026f61027c565b6102788261046e565b5050565b60025443101561028857565b6003546102955743600255565b6003546102a460025443610372565b6102b39064e8d4a510006108a7565b6102bd9190610885565b6000546102ca919061086d565b60005543600255565b6102db61027c565b6005546040516323b872dd60e01b8152336004820152306024820152604481018390526001600160a01b03909116906323b872dd90606401602060405180830381600087803b15801561032d57600080fd5b505af1158015610341573d6000803e3d6000fd5b505050506040513d601f19601f8201168201806040525081019061036591906107f7565b5061036f81610593565b50565b600061037e83836108c6565b60015461038b91906108a7565b9392505050565b33600090815260046020908152604080832081518083019092528054808352600190910154928201839052835491928492909164e8d4a51000916103d5916108a7565b6103df9190610885565b61038b91906108c6565b33600090815260046020526040812060018101548254825492939264e8d4a5100091610414916108a7565b61041e9190610885565b61042891906108c6565b90506104343382610632565b60405181815233907f47cee97cb7acd717b3c0aa1435d004cd5b3c8c57d70dbceb4e4458bbd60e39d4906020015b60405180910390a25050565b3360009081526004602052604090206104856103e9565b8181600001600082825461049991906108c6565b9091555050600054815464e8d4a51000916104b3916108c6565b6104bd9190610885565b816001018190555081600360008282546104d791906108c6565b909155505060055460405163a9059cbb60e01b8152336004820152602481018490526001600160a01b039091169063a9059cbb90604401602060405180830381600087803b15801561052857600080fd5b505af115801561053c573d6000803e3d6000fd5b505050506040513d601f19601f8201168201806040525081019061056091906107f7565b5060405182815233907f4422f6ee26bc9bf257a2a195c5dc2ce10475a4680b47c473b2bfed7f92a7822590602001610462565b3360009081526004602052604090206105aa6103e9565b818160000160008282546105be919061086d565b9250508190555081600360008282546105d7919061086d565b9091555050600054815464e8d4a51000916105f1916108a7565b6105fb9190610885565b600182015560405182815233907febedb8b3c678666e7f36970bc8f57abf6d8fa2e828c0da91ea5b75bf68ed101a90602001610462565b600081116106825760405162461bcd60e51b815260206004820152601f60248201527f596f7520617265207472616e7366657220736d616c6c6572207468616e203000604482015260640161025e565b6005546040516370a0823160e01b81523060048201526000916001600160a01b0316906370a082319060240160206040518083038186803b1580156106c657600080fd5b505afa1580156106da573d6000803e3d6000fd5b505050506040513d601f19601f820116820180604052508101906106fe9190610832565b9050808211156107955760055460405163a9059cbb60e01b81526001600160a01b038581166004830152602482018490529091169063a9059cbb906044015b602060405180830381600087803b15801561075757600080fd5b505af115801561076b573d6000803e3d6000fd5b505050506040513d601f19601f8201168201806040525081019061078f91906107f7565b50505050565b60055460405163a9059cbb60e01b81526001600160a01b038581166004830152602482018590529091169063a9059cbb9060440161073d565b6000602082840312156107e057600080fd5b81356001600160a01b038116811461038b57600080fd5b60006020828403121561080957600080fd5b8151801515811461038b57600080fd5b60006020828403121561082b57600080fd5b5035919050565b60006020828403121561084457600080fd5b5051919050565b6000806040838503121561085e57600080fd5b50508035926020909101359150565b60008219821115610880576108806108dd565b500190565b6000826108a257634e487b7160e01b600052601260045260246000fd5b500490565b60008160001904831182151516156108c1576108c16108dd565b500290565b6000828210156108d8576108d86108dd565b500390565b634e487b7160e01b600052601160045260246000fdfea26469706673582212209ea596bc5ca42649b4373239ee9e3c42b40009647c66301271bad2c57e250b7164736f6c63430008060033",
    "sourcePath": "/home/levon/Projects/inClass/staking-protocol/contracts/staking.sol",
    "compiler": {
        "name": "solc",
        "version": "0.8.6+commit.11564f7e"
    },
    "functionHashes": {
        "accRewardPerShare()": "939d6237",
        "claim()": "4e71d92d",
        "distributeReward()": "8f73c5ae",
        "getReward(uint256,uint256)": "b90bc519",
        "lastRewardBlock()": "a9f8d181",
        "pendingReword()": "f2e6d0c9",
        "rewardPerBlock()": "8ae39cac",
        "stake(uint256)": "a694fc3a",
        "stakedToken()": "cc7a262e",
        "totalStaked()": "817b1cd2",
        "unStake(uint256)": "5d3eea91",
        "userInfo(address)": "1959a002"
    },
    "gasEstimates": {
        "creation": {
            "codeDepositCost": "469000",
            "executionCost": "infinite",
            "totalCost": "infinite"
        },
        "external": {
            "accRewardPerShare()": "2295",
            "claim()": "infinite",
            "distributeReward()": "infinite",
            "getReward(uint256,uint256)": "2644",
            "lastRewardBlock()": "2339",
            "pendingReword()": "7018",
            "rewardPerBlock()": "2384",
            "stake(uint256)": "infinite",
            "stakedToken()": "2425",
            "totalStaked()": "2362",
            "unStake(uint256)": "infinite",
            "userInfo(address)": "4613"
        },
        "internal": {
            "_claim()": "infinite",
            "_stake(uint256)": "infinite",
            "_unstake(uint256)": "infinite",
            "safeTransfer(address,uint256)": "infinite"
        }
    }
}