{
  "address": "0xe7f1725E7734CE288F8367e1Bb143E90bb3F0512",
  "abi": [
    {
      "inputs": [
        {
          "internalType": "contract IERC20",
          "name": "_stakedToken",
          "type": "address"
        },
        {
          "internalType": "uint256",
          "name": "_rewardPerBlock",
          "type": "uint256"
        }
      ],
      "stateMutability": "nonpayable",
      "type": "constructor"
    },
    {
      "anonymous": false,
      "inputs": [
        {
          "indexed": true,
          "internalType": "address",
          "name": "user",
          "type": "address"
        },
        {
          "indexed": false,
          "internalType": "uint256",
          "name": "amount",
          "type": "uint256"
        }
      ],
      "name": "Claim",
      "type": "event"
    },
    {
      "anonymous": false,
      "inputs": [
        {
          "indexed": true,
          "internalType": "address",
          "name": "previousOwner",
          "type": "address"
        },
        {
          "indexed": true,
          "internalType": "address",
          "name": "newOwner",
          "type": "address"
        }
      ],
      "name": "OwnershipTransferred",
      "type": "event"
    },
    {
      "anonymous": false,
      "inputs": [
        {
          "indexed": true,
          "internalType": "address",
          "name": "user",
          "type": "address"
        },
        {
          "indexed": false,
          "internalType": "uint256",
          "name": "amount",
          "type": "uint256"
        }
      ],
      "name": "Stake",
      "type": "event"
    },
    {
      "anonymous": false,
      "inputs": [
        {
          "indexed": true,
          "internalType": "address",
          "name": "user",
          "type": "address"
        },
        {
          "indexed": false,
          "internalType": "uint256",
          "name": "amount",
          "type": "uint256"
        }
      ],
      "name": "unStaked",
      "type": "event"
    },
    {
      "inputs": [],
      "name": "accRewardPerShare",
      "outputs": [
        {
          "internalType": "uint256",
          "name": "",
          "type": "uint256"
        }
      ],
      "stateMutability": "view",
      "type": "function"
    },
    {
      "inputs": [],
      "name": "claim",
      "outputs": [],
      "stateMutability": "nonpayable",
      "type": "function"
    },
    {
      "inputs": [],
      "name": "distributeReward",
      "outputs": [],
      "stateMutability": "nonpayable",
      "type": "function"
    },
    {
      "inputs": [
        {
          "internalType": "uint256",
          "name": "_from",
          "type": "uint256"
        },
        {
          "internalType": "uint256",
          "name": "_to",
          "type": "uint256"
        }
      ],
      "name": "getReward",
      "outputs": [
        {
          "internalType": "uint256",
          "name": "",
          "type": "uint256"
        }
      ],
      "stateMutability": "view",
      "type": "function"
    },
    {
      "inputs": [],
      "name": "lastRewardBlock",
      "outputs": [
        {
          "internalType": "uint256",
          "name": "",
          "type": "uint256"
        }
      ],
      "stateMutability": "view",
      "type": "function"
    },
    {
      "inputs": [],
      "name": "owner",
      "outputs": [
        {
          "internalType": "address",
          "name": "",
          "type": "address"
        }
      ],
      "stateMutability": "view",
      "type": "function"
    },
    {
      "inputs": [],
      "name": "pendingReword",
      "outputs": [
        {
          "internalType": "uint256",
          "name": "",
          "type": "uint256"
        }
      ],
      "stateMutability": "view",
      "type": "function"
    },
    {
      "inputs": [],
      "name": "renounceOwnership",
      "outputs": [],
      "stateMutability": "nonpayable",
      "type": "function"
    },
    {
      "inputs": [],
      "name": "rewardPerBlock",
      "outputs": [
        {
          "internalType": "uint256",
          "name": "",
          "type": "uint256"
        }
      ],
      "stateMutability": "view",
      "type": "function"
    },
    {
      "inputs": [
        {
          "internalType": "uint256",
          "name": "_rewardPerBlock",
          "type": "uint256"
        }
      ],
      "name": "setRewardPerBlock",
      "outputs": [],
      "stateMutability": "nonpayable",
      "type": "function"
    },
    {
      "inputs": [
        {
          "internalType": "uint256",
          "name": "_amount",
          "type": "uint256"
        }
      ],
      "name": "stake",
      "outputs": [],
      "stateMutability": "nonpayable",
      "type": "function"
    },
    {
      "inputs": [],
      "name": "stakedToken",
      "outputs": [
        {
          "internalType": "contract IERC20",
          "name": "",
          "type": "address"
        }
      ],
      "stateMutability": "view",
      "type": "function"
    },
    {
      "inputs": [],
      "name": "totalStaked",
      "outputs": [
        {
          "internalType": "uint256",
          "name": "",
          "type": "uint256"
        }
      ],
      "stateMutability": "view",
      "type": "function"
    },
    {
      "inputs": [
        {
          "internalType": "address",
          "name": "newOwner",
          "type": "address"
        }
      ],
      "name": "transferOwnership",
      "outputs": [],
      "stateMutability": "nonpayable",
      "type": "function"
    },
    {
      "inputs": [
        {
          "internalType": "uint256",
          "name": "_amount",
          "type": "uint256"
        }
      ],
      "name": "unStake",
      "outputs": [],
      "stateMutability": "nonpayable",
      "type": "function"
    },
    {
      "inputs": [
        {
          "internalType": "address",
          "name": "",
          "type": "address"
        }
      ],
      "name": "userInfo",
      "outputs": [
        {
          "internalType": "uint256",
          "name": "amount",
          "type": "uint256"
        },
        {
          "internalType": "uint256",
          "name": "rewardDebt",
          "type": "uint256"
        }
      ],
      "stateMutability": "view",
      "type": "function"
    }
  ],
  "transactionHash": "0x10c3c5fd8149e9d99902472b479e9081b58cc272fbdfde1fe96ca14ce9f4843f",
  "args": [
    "0x5FbDB2315678afecb367f032d93F642f64180aa3",
    "1000000000000000000"
  ],
  "solcInputHash": "c0b6911451d3a69e0aa54c9c0f6c26ca",
  "bytecode": "0x60806040523480156200001157600080fd5b5060405162001c6938038062001c698339818101604052810190620000379190620001a1565b620000576200004b620000a760201b60201c565b620000af60201b60201c565b81600660006101000a81548173ffffffffffffffffffffffffffffffffffffffff021916908373ffffffffffffffffffffffffffffffffffffffff16021790555080600281905550505062000273565b600033905090565b60008060009054906101000a900473ffffffffffffffffffffffffffffffffffffffff169050816000806101000a81548173ffffffffffffffffffffffffffffffffffffffff021916908373ffffffffffffffffffffffffffffffffffffffff1602179055508173ffffffffffffffffffffffffffffffffffffffff168173ffffffffffffffffffffffffffffffffffffffff167f8be0079c531659141344cd1fd0a4f28419497f9722a3daafe3b4186f6b6457e060405160405180910390a35050565b60008151905062000184816200023f565b92915050565b6000815190506200019b8162000259565b92915050565b60008060408385031215620001bb57620001ba6200023a565b5b6000620001cb8582860162000173565b9250506020620001de858286016200018a565b9150509250929050565b6000620001f58262000210565b9050919050565b60006200020982620001e8565b9050919050565b600073ffffffffffffffffffffffffffffffffffffffff82169050919050565b6000819050919050565b600080fd5b6200024a81620001fc565b81146200025657600080fd5b50565b620002648162000230565b81146200027057600080fd5b50565b6119e680620002836000396000f3fe608060405234801561001057600080fd5b50600436106101005760003560e01c8063939d623711610097578063bb872b4a11610066578063bb872b4a14610252578063cc7a262e1461026e578063f2e6d0c91461028c578063f2fde38b146102aa57610100565b8063939d6237146101ca578063a694fc3a146101e8578063a9f8d18114610204578063b90bc5191461022257610100565b8063817b1cd2116100d3578063817b1cd2146101665780638ae39cac146101845780638da5cb5b146101a25780638f73c5ae146101c057610100565b80631959a002146101055780634e71d92d146101365780635d3eea9114610140578063715018a61461015c575b600080fd5b61011f600480360381019061011a9190611179565b6102c6565b60405161012d929190611580565b60405180910390f35b61013e6102ea565b005b61015a600480360381019061015591906111d3565b61036a565b005b610164610428565b005b61016e6104b0565b60405161017b9190611565565b60405180910390f35b61018c6104b6565b6040516101999190611565565b60405180910390f35b6101aa6104bc565b6040516101b791906113ed565b60405180910390f35b6101c86104e5565b005b6101d2610551565b6040516101df9190611565565b60405180910390f35b61020260048036038101906101fd91906111d3565b610557565b005b61020c6105ba565b6040516102199190611565565b60405180910390f35b61023c6004803603810190610237919061122d565b6105c0565b6040516102499190611565565b60405180910390f35b61026c600480360381019061026791906111d3565b6105e3565b005b610276610671565b6040516102839190611468565b60405180910390f35b610294610697565b6040516102a19190611565565b60405180910390f35b6102c460048036038101906102bf9190611179565b610764565b005b60056020528060005260406000206000915090508060000154908060010154905082565b6000600560003373ffffffffffffffffffffffffffffffffffffffff1673ffffffffffffffffffffffffffffffffffffffff16815260200190815260200160002090506103356104e5565b61033d61085c565b64e8d4a5100060015482600001546103559190611662565b61035f9190611631565b816001018190555050565b6000600560003373ffffffffffffffffffffffffffffffffffffffff1673ffffffffffffffffffffffffffffffffffffffff1681526020019081526020016000206040518060400160405290816000820154815260200160018201548152505090508181600001511015610413576040517f08c379a000000000000000000000000000000000000000000000000000000000815260040161040a906114e5565b60405180910390fd5b61041b6104e5565b61042482610930565b5050565b610430610a78565b73ffffffffffffffffffffffffffffffffffffffff1661044e6104bc565b73ffffffffffffffffffffffffffffffffffffffff16146104a4576040517f08c379a000000000000000000000000000000000000000000000000000000000815260040161049b90611505565b60405180910390fd5b6104ae6000610a80565b565b60045481565b60025481565b60008060009054906101000a900473ffffffffffffffffffffffffffffffffffffffff16905090565b6003544310156104f45761054f565b6000600454141561050b574360038190555061054f565b60045464e8d4a51000610520600354436105c0565b61052a9190611662565b6105349190611631565b60015461054191906115db565b600181905550436003819055505b565b60015481565b61055f6104e5565b6105ae333083600660009054906101000a900473ffffffffffffffffffffffffffffffffffffffff1673ffffffffffffffffffffffffffffffffffffffff16610b44909392919063ffffffff16565b6105b781610bcd565b50565b60035481565b600082826105ce91906116bc565b6002546105db9190611662565b905092915050565b6105eb610a78565b73ffffffffffffffffffffffffffffffffffffffff166106096104bc565b73ffffffffffffffffffffffffffffffffffffffff161461065f576040517f08c379a000000000000000000000000000000000000000000000000000000000815260040161065690611505565b60405180910390fd5b6106676104e5565b8060028190555050565b600660009054906101000a900473ffffffffffffffffffffffffffffffffffffffff1681565b600080600560003373ffffffffffffffffffffffffffffffffffffffff1673ffffffffffffffffffffffffffffffffffffffff168152602001908152602001600020604051806040016040529081600082015481526020016001820154815250509050806020015164e8d4a5100060045464e8d4a5100061071a600354436105c0565b6107249190611662565b61072e9190611631565b60015484600001516107409190611662565b61074a91906115db565b6107549190611631565b61075e91906116bc565b91505090565b61076c610a78565b73ffffffffffffffffffffffffffffffffffffffff1661078a6104bc565b73ffffffffffffffffffffffffffffffffffffffff16146107e0576040517f08c379a00000000000000000000000000000000000000000000000000000000081526004016107d790611505565b60405180910390fd5b600073ffffffffffffffffffffffffffffffffffffffff168173ffffffffffffffffffffffffffffffffffffffff161415610850576040517f08c379a0000000000000000000000000000000000000000000000000000000008152600401610847906114a5565b60405180910390fd5b61085981610a80565b50565b6000600560003373ffffffffffffffffffffffffffffffffffffffff1673ffffffffffffffffffffffffffffffffffffffff16815260200190815260200160002090506000816001015464e8d4a5100060015484600001546108be9190611662565b6108c89190611631565b6108d291906116bc565b90506108de3382610cc8565b3373ffffffffffffffffffffffffffffffffffffffff167f47cee97cb7acd717b3c0aa1435d004cd5b3c8c57d70dbceb4e4458bbd60e39d4826040516109249190611565565b60405180910390a25050565b6000600560003373ffffffffffffffffffffffffffffffffffffffff1673ffffffffffffffffffffffffffffffffffffffff168152602001908152602001600020905061097b61085c565b8181600001600082825461098f91906116bc565b9250508190555064e8d4a5100060015482600001546109ae91906116bc565b6109b89190611631565b816001018190555081600460008282546109d291906116bc565b92505081905550610a263383600660009054906101000a900473ffffffffffffffffffffffffffffffffffffffff1673ffffffffffffffffffffffffffffffffffffffff16610e329092919063ffffffff16565b3373ffffffffffffffffffffffffffffffffffffffff167f4422f6ee26bc9bf257a2a195c5dc2ce10475a4680b47c473b2bfed7f92a7822583604051610a6c9190611565565b60405180910390a25050565b600033905090565b60008060009054906101000a900473ffffffffffffffffffffffffffffffffffffffff169050816000806101000a81548173ffffffffffffffffffffffffffffffffffffffff021916908373ffffffffffffffffffffffffffffffffffffffff1602179055508173ffffffffffffffffffffffffffffffffffffffff168173ffffffffffffffffffffffffffffffffffffffff167f8be0079c531659141344cd1fd0a4f28419497f9722a3daafe3b4186f6b6457e060405160405180910390a35050565b610bc7846323b872dd60e01b858585604051602401610b6593929190611408565b604051602081830303815290604052907bffffffffffffffffffffffffffffffffffffffffffffffffffffffff19166020820180517bffffffffffffffffffffffffffffffffffffffffffffffffffffffff8381831617835250505050610eb8565b50505050565b6000600560003373ffffffffffffffffffffffffffffffffffffffff1673ffffffffffffffffffffffffffffffffffffffff1681526020019081526020016000209050610c1861085c565b81816000016000828254610c2c91906115db565b925050819055508160046000828254610c4591906115db565b9250508190555064e8d4a510006001548260000154610c649190611662565b610c6e9190611631565b81600101819055503373ffffffffffffffffffffffffffffffffffffffff167febedb8b3c678666e7f36970bc8f57abf6d8fa2e828c0da91ea5b75bf68ed101a83604051610cbc9190611565565b60405180910390a25050565b6000600454600660009054906101000a900473ffffffffffffffffffffffffffffffffffffffff1673ffffffffffffffffffffffffffffffffffffffff166370a08231306040518263ffffffff1660e01b8152600401610d2891906113ed565b60206040518083038186803b158015610d4057600080fd5b505afa158015610d54573d6000803e3d6000fd5b505050506040513d601f19601f82011682018060405250810190610d789190611200565b610d8291906116bc565b905080821115610ddf57610dd98382600660009054906101000a900473ffffffffffffffffffffffffffffffffffffffff1673ffffffffffffffffffffffffffffffffffffffff16610e329092919063ffffffff16565b50610e2e565b610e2c8383600660009054906101000a900473ffffffffffffffffffffffffffffffffffffffff1673ffffffffffffffffffffffffffffffffffffffff16610e329092919063ffffffff16565b505b5050565b610eb38363a9059cbb60e01b8484604051602401610e5192919061143f565b604051602081830303815290604052907bffffffffffffffffffffffffffffffffffffffffffffffffffffffff19166020820180517bffffffffffffffffffffffffffffffffffffffffffffffffffffffff8381831617835250505050610eb8565b505050565b6000610f1a826040518060400160405280602081526020017f5361666545524332303a206c6f772d6c6576656c2063616c6c206661696c65648152508573ffffffffffffffffffffffffffffffffffffffff16610f7f9092919063ffffffff16565b9050600081511115610f7a5780806020019051810190610f3a91906111a6565b610f79576040517f08c379a0000000000000000000000000000000000000000000000000000000008152600401610f7090611545565b60405180910390fd5b5b505050565b6060610f8e8484600085610f97565b90509392505050565b606082471015610fdc576040517f08c379a0000000000000000000000000000000000000000000000000000000008152600401610fd3906114c5565b60405180910390fd5b610fe5856110ab565b611024576040517f08c379a000000000000000000000000000000000000000000000000000000000815260040161101b90611525565b60405180910390fd5b6000808673ffffffffffffffffffffffffffffffffffffffff16858760405161104d91906113d6565b60006040518083038185875af1925050503d806000811461108a576040519150601f19603f3d011682016040523d82523d6000602084013e61108f565b606091505b509150915061109f8282866110be565b92505050949350505050565b600080823b905060008111915050919050565b606083156110ce5782905061111e565b6000835111156110e15782518084602001fd5b816040517f08c379a00000000000000000000000000000000000000000000000000000000081526004016111159190611483565b60405180910390fd5b9392505050565b6000813590506111348161196b565b92915050565b60008151905061114981611982565b92915050565b60008135905061115e81611999565b92915050565b60008151905061117381611999565b92915050565b60006020828403121561118f5761118e6117ed565b5b600061119d84828501611125565b91505092915050565b6000602082840312156111bc576111bb6117ed565b5b60006111ca8482850161113a565b91505092915050565b6000602082840312156111e9576111e86117ed565b5b60006111f78482850161114f565b91505092915050565b600060208284031215611216576112156117ed565b5b600061122484828501611164565b91505092915050565b60008060408385031215611244576112436117ed565b5b60006112528582860161114f565b92505060206112638582860161114f565b9150509250929050565b611276816116f0565b82525050565b6000611287826115a9565b61129181856115bf565b93506112a181856020860161175c565b80840191505092915050565b6112b681611738565b82525050565b60006112c7826115b4565b6112d181856115ca565b93506112e181856020860161175c565b6112ea816117f2565b840191505092915050565b60006113026026836115ca565b915061130d82611803565b604082019050919050565b60006113256026836115ca565b915061133082611852565b604082019050919050565b60006113486013836115ca565b9150611353826118a1565b602082019050919050565b600061136b6020836115ca565b9150611376826118ca565b602082019050919050565b600061138e601d836115ca565b9150611399826118f3565b602082019050919050565b60006113b1602a836115ca565b91506113bc8261191c565b604082019050919050565b6113d08161172e565b82525050565b60006113e2828461127c565b915081905092915050565b6000602082019050611402600083018461126d565b92915050565b600060608201905061141d600083018661126d565b61142a602083018561126d565b61143760408301846113c7565b949350505050565b6000604082019050611454600083018561126d565b61146160208301846113c7565b9392505050565b600060208201905061147d60008301846112ad565b92915050565b6000602082019050818103600083015261149d81846112bc565b905092915050565b600060208201905081810360008301526114be816112f5565b9050919050565b600060208201905081810360008301526114de81611318565b9050919050565b600060208201905081810360008301526114fe8161133b565b9050919050565b6000602082019050818103600083015261151e8161135e565b9050919050565b6000602082019050818103600083015261153e81611381565b9050919050565b6000602082019050818103600083015261155e816113a4565b9050919050565b600060208201905061157a60008301846113c7565b92915050565b600060408201905061159560008301856113c7565b6115a260208301846113c7565b9392505050565b600081519050919050565b600081519050919050565b600081905092915050565b600082825260208201905092915050565b60006115e68261172e565b91506115f18361172e565b9250827fffffffffffffffffffffffffffffffffffffffffffffffffffffffffffffffff038211156116265761162561178f565b5b828201905092915050565b600061163c8261172e565b91506116478361172e565b925082611657576116566117be565b5b828204905092915050565b600061166d8261172e565b91506116788361172e565b9250817fffffffffffffffffffffffffffffffffffffffffffffffffffffffffffffffff04831182151516156116b1576116b061178f565b5b828202905092915050565b60006116c78261172e565b91506116d28361172e565b9250828210156116e5576116e461178f565b5b828203905092915050565b60006116fb8261170e565b9050919050565b60008115159050919050565b600073ffffffffffffffffffffffffffffffffffffffff82169050919050565b6000819050919050565b60006117438261174a565b9050919050565b60006117558261170e565b9050919050565b60005b8381101561177a57808201518184015260208101905061175f565b83811115611789576000848401525b50505050565b7f4e487b7100000000000000000000000000000000000000000000000000000000600052601160045260246000fd5b7f4e487b7100000000000000000000000000000000000000000000000000000000600052601260045260246000fd5b600080fd5b6000601f19601f8301169050919050565b7f4f776e61626c653a206e6577206f776e657220697320746865207a65726f206160008201527f6464726573730000000000000000000000000000000000000000000000000000602082015250565b7f416464726573733a20696e73756666696369656e742062616c616e636520666f60008201527f722063616c6c0000000000000000000000000000000000000000000000000000602082015250565b7f5374616b696e673a3a62616420616374696f6e00000000000000000000000000600082015250565b7f4f776e61626c653a2063616c6c6572206973206e6f7420746865206f776e6572600082015250565b7f416464726573733a2063616c6c20746f206e6f6e2d636f6e7472616374000000600082015250565b7f5361666545524332303a204552433230206f7065726174696f6e20646964206e60008201527f6f74207375636365656400000000000000000000000000000000000000000000602082015250565b611974816116f0565b811461197f57600080fd5b50565b61198b81611702565b811461199657600080fd5b50565b6119a28161172e565b81146119ad57600080fd5b5056fea2646970667358221220abaaf8f5254654779522bed2046d4f6c399cdcec26ca0807a39ce2c09f1fc25064736f6c63430008060033",
  "devdoc": {
    "kind": "dev",
    "methods": {
      "owner()": {
        "details": "Returns the address of the current owner."
      },
      "renounceOwnership()": {
        "details": "Leaves the contract without owner. It will not be possible to call `onlyOwner` functions anymore. Can only be called by the current owner. NOTE: Renouncing ownership will leave the contract without an owner, thereby removing any functionality that is only available to the owner."
      },
      "transferOwnership(address)": {
        "details": "Transfers ownership of the contract to a new account (`newOwner`). Can only be called by the current owner."
      }
    },
    "version": 1
  },
  "userdoc": {
    "kind": "user",
    "methods": {},
    "version": 1
  },
  "storageLayout": {
    "storage": [
      {
        "astId": 7,
        "contract": "contracts/Staking.sol:Staking",
        "label": "_owner",
        "offset": 0,
        "slot": "0",
        "type": "t_address"
      },
      {
        "astId": 740,
        "contract": "contracts/Staking.sol:Staking",
        "label": "accRewardPerShare",
        "offset": 0,
        "slot": "1",
        "type": "t_uint256"
      },
      {
        "astId": 742,
        "contract": "contracts/Staking.sol:Staking",
        "label": "rewardPerBlock",
        "offset": 0,
        "slot": "2",
        "type": "t_uint256"
      },
      {
        "astId": 744,
        "contract": "contracts/Staking.sol:Staking",
        "label": "lastRewardBlock",
        "offset": 0,
        "slot": "3",
        "type": "t_uint256"
      },
      {
        "astId": 746,
        "contract": "contracts/Staking.sol:Staking",
        "label": "totalStaked",
        "offset": 0,
        "slot": "4",
        "type": "t_uint256"
      },
      {
        "astId": 751,
        "contract": "contracts/Staking.sol:Staking",
        "label": "userInfo",
        "offset": 0,
        "slot": "5",
        "type": "t_mapping(t_address,t_struct(UserInfo)738_storage)"
      },
      {
        "astId": 754,
        "contract": "contracts/Staking.sol:Staking",
        "label": "stakedToken",
        "offset": 0,
        "slot": "6",
        "type": "t_contract(IERC20)181"
      }
    ],
    "types": {
      "t_address": {
        "encoding": "inplace",
        "label": "address",
        "numberOfBytes": "20"
      },
      "t_contract(IERC20)181": {
        "encoding": "inplace",
        "label": "contract IERC20",
        "numberOfBytes": "20"
      },
      "t_mapping(t_address,t_struct(UserInfo)738_storage)": {
        "encoding": "mapping",
        "key": "t_address",
        "label": "mapping(address => struct Staking.UserInfo)",
        "numberOfBytes": "32",
        "value": "t_struct(UserInfo)738_storage"
      },
      "t_struct(UserInfo)738_storage": {
        "encoding": "inplace",
        "label": "struct Staking.UserInfo",
        "members": [
          {
            "astId": 735,
            "contract": "contracts/Staking.sol:Staking",
            "label": "amount",
            "offset": 0,
            "slot": "0",
            "type": "t_uint256"
          },
          {
            "astId": 737,
            "contract": "contracts/Staking.sol:Staking",
            "label": "rewardDebt",
            "offset": 0,
            "slot": "1",
            "type": "t_uint256"
          }
        ],
        "numberOfBytes": "64"
      },
      "t_uint256": {
        "encoding": "inplace",
        "label": "uint256",
        "numberOfBytes": "32"
      }
    }
  }
}